{
  "_format": "hh-sol-artifact-1",
  "contractName": "ContributionRewardSystem",
  "sourceName": "contracts/causeKoinSmartContract.sol",
  "abi": [
    {
      "inputs": [
        {
          "internalType": "address",
          "name": "_contributionNFTAddress",
          "type": "address"
        },
        {
          "internalType": "address",
          "name": "_causeKoinAddress",
          "type": "address"
        }
      ],
      "stateMutability": "nonpayable",
      "type": "constructor"
    },
    {
      "inputs": [],
      "name": "LEVEL1_REWARD",
      "outputs": [
        {
          "internalType": "uint256",
          "name": "",
          "type": "uint256"
        }
      ],
      "stateMutability": "view",
      "type": "function"
    },
    {
      "inputs": [],
      "name": "LEVEL2_REWARD",
      "outputs": [
        {
          "internalType": "uint256",
          "name": "",
          "type": "uint256"
        }
      ],
      "stateMutability": "view",
      "type": "function"
    },
    {
      "inputs": [],
      "name": "LEVEL3_REWARD",
      "outputs": [
        {
          "internalType": "uint256",
          "name": "",
          "type": "uint256"
        }
      ],
      "stateMutability": "view",
      "type": "function"
    },
    {
      "inputs": [],
      "name": "causeKoin",
      "outputs": [
        {
          "internalType": "contract CauseKoin",
          "name": "",
          "type": "address"
        }
      ],
      "stateMutability": "view",
      "type": "function"
    },
    {
      "inputs": [
        {
          "internalType": "address",
          "name": "",
          "type": "address"
        }
      ],
      "name": "claimCount",
      "outputs": [
        {
          "internalType": "uint256",
          "name": "",
          "type": "uint256"
        }
      ],
      "stateMutability": "view",
      "type": "function"
    },
    {
      "inputs": [
        {
          "internalType": "uint256",
          "name": "_tokenId",
          "type": "uint256"
        }
      ],
      "name": "claimRewards",
      "outputs": [],
      "stateMutability": "nonpayable",
      "type": "function"
    },
    {
      "inputs": [],
      "name": "contributionNFT",
      "outputs": [
        {
          "internalType": "contract PlasticContributionNFT",
          "name": "",
          "type": "address"
        }
      ],
      "stateMutability": "view",
      "type": "function"
    },
    {
      "inputs": [
        {
          "internalType": "address",
          "name": "_user",
          "type": "address"
        }
      ],
      "name": "getUserBalance",
      "outputs": [
        {
          "internalType": "uint256",
          "name": "",
          "type": "uint256"
        }
      ],
      "stateMutability": "view",
      "type": "function"
    },
    {
      "inputs": [
        {
          "internalType": "address",
          "name": "_user",
          "type": "address"
        }
      ],
      "name": "getUserClaimCount",
      "outputs": [
        {
          "internalType": "uint256",
          "name": "",
          "type": "uint256"
        }
      ],
      "stateMutability": "view",
      "type": "function"
    },
    {
      "inputs": [
        {
          "internalType": "address",
          "name": "_user",
          "type": "address"
        }
      ],
      "name": "getUserLevel",
      "outputs": [
        {
          "internalType": "enum ContributionRewardSystem.NFTLevel",
          "name": "",
          "type": "uint8"
        }
      ],
      "stateMutability": "view",
      "type": "function"
    },
    {
      "inputs": [],
      "name": "owner",
      "outputs": [
        {
          "internalType": "address",
          "name": "",
          "type": "address"
        }
      ],
      "stateMutability": "view",
      "type": "function"
    },
    {
      "inputs": [
        {
          "internalType": "uint256",
          "name": "",
          "type": "uint256"
        }
      ],
      "name": "rewardedNFTs",
      "outputs": [
        {
          "internalType": "bool",
          "name": "",
          "type": "bool"
        }
      ],
      "stateMutability": "view",
      "type": "function"
    },
    {
      "inputs": [
        {
          "internalType": "uint256",
          "name": "_level1Reward",
          "type": "uint256"
        },
        {
          "internalType": "uint256",
          "name": "_level2Reward",
          "type": "uint256"
        },
        {
          "internalType": "uint256",
          "name": "_level3Reward",
          "type": "uint256"
        }
      ],
      "name": "setRewardAmounts",
      "outputs": [],
      "stateMutability": "nonpayable",
      "type": "function"
    },
    {
      "inputs": [
        {
          "internalType": "address",
          "name": "",
          "type": "address"
        }
      ],
      "name": "userLevels",
      "outputs": [
        {
          "internalType": "enum ContributionRewardSystem.NFTLevel",
          "name": "",
          "type": "uint8"
        }
      ],
      "stateMutability": "view",
      "type": "function"
    },
    {
      "inputs": [
        {
          "internalType": "uint256",
          "name": "amount",
          "type": "uint256"
        }
      ],
      "name": "withdrawTokens",
      "outputs": [],
      "stateMutability": "nonpayable",
      "type": "function"
    }
  ],
  "bytecode": "0x6080604052670de0b6b3a7640000600355671bc16d674ec80000600455673782dace9d90000060055534801561003457600080fd5b5060405161170938038061170983398181016040528101906100569190610182565b816000806101000a81548173ffffffffffffffffffffffffffffffffffffffff021916908373ffffffffffffffffffffffffffffffffffffffff16021790555080600160006101000a81548173ffffffffffffffffffffffffffffffffffffffff021916908373ffffffffffffffffffffffffffffffffffffffff16021790555033600260006101000a81548173ffffffffffffffffffffffffffffffffffffffff021916908373ffffffffffffffffffffffffffffffffffffffff16021790555050506101c2565b600080fd5b600073ffffffffffffffffffffffffffffffffffffffff82169050919050565b600061014f82610124565b9050919050565b61015f81610144565b811461016a57600080fd5b50565b60008151905061017c81610156565b92915050565b600080604083850312156101995761019861011f565b5b60006101a78582860161016d565b92505060206101b88582860161016d565b9150509250929050565b611538806101d16000396000f3fe608060405234801561001057600080fd5b50600436106100f55760003560e01c806347734892116100975780638da5cb5b116100665780638da5cb5b14610298578063d78f45bf146102b6578063d82b99c7146102e6578063e72fe4ff14610304576100f5565b806347734892146101fc5780635d86e7fd1461022c57806369c12cb71461024a5780636d8d1a5e1461027a576100f5565b806330413ccf116100d357806330413ccf14610162578063315a095d14610192578063326aaf56146101ae57806340676a51146101cc576100f5565b80630962ef79146100fa57806321923bde146101165780632be0d14214610146575b600080fd5b610114600480360381019061010f9190610e83565b610322565b005b610130600480360381019061012b9190610f0e565b610832565b60405161013d9190610fb2565b60405180910390f35b610160600480360381019061015b9190610fcd565b610888565b005b61017c60048036038101906101779190610f0e565b61098d565b6040516101899190610fb2565b60405180910390f35b6101ac60048036038101906101a79190610e83565b6109ad565b005b6101b6610b03565b6040516101c3919061102f565b60405180910390f35b6101e660048036038101906101e19190610f0e565b610b09565b6040516101f3919061102f565b60405180910390f35b61021660048036038101906102119190610f0e565b610b52565b604051610223919061102f565b60405180910390f35b610234610bf7565b60405161024191906110a9565b60405180910390f35b610264600480360381019061025f9190610f0e565b610c1b565b604051610271919061102f565b60405180910390f35b610282610c33565b60405161028f919061102f565b60405180910390f35b6102a0610c39565b6040516102ad91906110d3565b60405180910390f35b6102d060048036038101906102cb9190610e83565b610c5f565b6040516102dd9190611109565b60405180910390f35b6102ee610c7f565b6040516102fb9190611145565b60405180910390f35b61030c610ca5565b604051610319919061102f565b60405180910390f35b3373ffffffffffffffffffffffffffffffffffffffff1660008054906101000a900473ffffffffffffffffffffffffffffffffffffffff1673ffffffffffffffffffffffffffffffffffffffff16636352211e836040518263ffffffff1660e01b8152600401610392919061102f565b602060405180830381865afa1580156103af573d6000803e3d6000fd5b505050506040513d601f19601f820116820180604052508101906103d39190611175565b73ffffffffffffffffffffffffffffffffffffffff1614610429576040517f08c379a0000000000000000000000000000000000000000000000000000000008152600401610420906111ff565b60405180910390fd5b6006600082815260200190815260200160002060009054906101000a900460ff161561048a576040517f08c379a000000000000000000000000000000000000000000000000000000000815260040161048190611291565b60405180910390fd5b60008060009054906101000a900473ffffffffffffffffffffffffffffffffffffffff1673ffffffffffffffffffffffffffffffffffffffff1663080e035d836040518263ffffffff1660e01b81526004016104e6919061102f565b602060405180830381865afa158015610503573d6000803e3d6000fd5b505050506040513d601f19601f8201168201806040525081019061052791906112d6565b90506001600860003373ffffffffffffffffffffffffffffffffffffffff1673ffffffffffffffffffffffffffffffffffffffff16815260200190815260200160002060008282546105799190611332565b9250508190555061058933610cab565b6000600281111561059d5761059c610f3b565b5b8160028111156105b0576105af610f3b565b5b0361065d57600160009054906101000a900473ffffffffffffffffffffffffffffffffffffffff1673ffffffffffffffffffffffffffffffffffffffff1663a9059cbb336003546040518363ffffffff1660e01b8152600401610614929190611366565b6020604051808303816000875af1158015610633573d6000803e3d6000fd5b505050506040513d601f19601f8201168201806040525081019061065791906113bb565b50610802565b6001600281111561067157610670610f3b565b5b81600281111561068457610683610f3b565b5b0361073157600160009054906101000a900473ffffffffffffffffffffffffffffffffffffffff1673ffffffffffffffffffffffffffffffffffffffff1663a9059cbb336004546040518363ffffffff1660e01b81526004016106e8929190611366565b6020604051808303816000875af1158015610707573d6000803e3d6000fd5b505050506040513d601f19601f8201168201806040525081019061072b91906113bb565b50610801565b60028081111561074457610743610f3b565b5b81600281111561075757610756610f3b565b5b0361080057600160009054906101000a900473ffffffffffffffffffffffffffffffffffffffff1673ffffffffffffffffffffffffffffffffffffffff1663a9059cbb336005546040518363ffffffff1660e01b81526004016107bb929190611366565b6020604051808303816000875af11580156107da573d6000803e3d6000fd5b505050506040513d601f19601f820116820180604052508101906107fe91906113bb565b505b5b5b60016006600084815260200190815260200160002060006101000a81548160ff0219169083151502179055505050565b6000600760008373ffffffffffffffffffffffffffffffffffffffff1673ffffffffffffffffffffffffffffffffffffffff16815260200190815260200160002060009054906101000a900460ff169050919050565b600260009054906101000a900473ffffffffffffffffffffffffffffffffffffffff1673ffffffffffffffffffffffffffffffffffffffff163373ffffffffffffffffffffffffffffffffffffffff1614610918576040517f08c379a000000000000000000000000000000000000000000000000000000000815260040161090f90611434565b60405180910390fd5b6000831180156109285750600082115b80156109345750600081115b610973576040517f08c379a000000000000000000000000000000000000000000000000000000000815260040161096a906114a0565b60405180910390fd5b826003819055508160048190555080600581905550505050565b60076020528060005260406000206000915054906101000a900460ff1681565b600260009054906101000a900473ffffffffffffffffffffffffffffffffffffffff1673ffffffffffffffffffffffffffffffffffffffff163373ffffffffffffffffffffffffffffffffffffffff1614610a3d576040517f08c379a0000000000000000000000000000000000000000000000000000000008152600401610a3490611434565b60405180910390fd5b600160009054906101000a900473ffffffffffffffffffffffffffffffffffffffff1673ffffffffffffffffffffffffffffffffffffffff1663a9059cbb600260009054906101000a900473ffffffffffffffffffffffffffffffffffffffff16836040518363ffffffff1660e01b8152600401610abc929190611366565b6020604051808303816000875af1158015610adb573d6000803e3d6000fd5b505050506040513d601f19601f82011682018060405250810190610aff91906113bb565b5050565b60045481565b6000600860008373ffffffffffffffffffffffffffffffffffffffff1673ffffffffffffffffffffffffffffffffffffffff168152602001908152602001600020549050919050565b6000600160009054906101000a900473ffffffffffffffffffffffffffffffffffffffff1673ffffffffffffffffffffffffffffffffffffffff166370a08231836040518263ffffffff1660e01b8152600401610baf91906110d3565b602060405180830381865afa158015610bcc573d6000803e3d6000fd5b505050506040513d601f19601f82011682018060405250810190610bf091906114d5565b9050919050565b60008054906101000a900473ffffffffffffffffffffffffffffffffffffffff1681565b60086020528060005260406000206000915090505481565b60055481565b600260009054906101000a900473ffffffffffffffffffffffffffffffffffffffff1681565b60066020528060005260406000206000915054906101000a900460ff1681565b600160009054906101000a900473ffffffffffffffffffffffffffffffffffffffff1681565b60035481565b6000600860008373ffffffffffffffffffffffffffffffffffffffff1673ffffffffffffffffffffffffffffffffffffffff16815260200190815260200160002054905060078110610d64576002600760008473ffffffffffffffffffffffffffffffffffffffff1673ffffffffffffffffffffffffffffffffffffffff16815260200190815260200160002060006101000a81548160ff02191690836002811115610d5a57610d59610f3b565b5b0217905550610e44565b6004811115610dda576001600760008473ffffffffffffffffffffffffffffffffffffffff1673ffffffffffffffffffffffffffffffffffffffff16815260200190815260200160002060006101000a81548160ff02191690836002811115610dd057610dcf610f3b565b5b0217905550610e43565b6000600760008473ffffffffffffffffffffffffffffffffffffffff1673ffffffffffffffffffffffffffffffffffffffff16815260200190815260200160002060006101000a81548160ff02191690836002811115610e3d57610e3c610f3b565b5b02179055505b5b5050565b600080fd5b6000819050919050565b610e6081610e4d565b8114610e6b57600080fd5b50565b600081359050610e7d81610e57565b92915050565b600060208284031215610e9957610e98610e48565b5b6000610ea784828501610e6e565b91505092915050565b600073ffffffffffffffffffffffffffffffffffffffff82169050919050565b6000610edb82610eb0565b9050919050565b610eeb81610ed0565b8114610ef657600080fd5b50565b600081359050610f0881610ee2565b92915050565b600060208284031215610f2457610f23610e48565b5b6000610f3284828501610ef9565b91505092915050565b7f4e487b7100000000000000000000000000000000000000000000000000000000600052602160045260246000fd5b60038110610f7b57610f7a610f3b565b5b50565b6000819050610f8c82610f6a565b919050565b6000610f9c82610f7e565b9050919050565b610fac81610f91565b82525050565b6000602082019050610fc76000830184610fa3565b92915050565b600080600060608486031215610fe657610fe5610e48565b5b6000610ff486828701610e6e565b935050602061100586828701610e6e565b925050604061101686828701610e6e565b9150509250925092565b61102981610e4d565b82525050565b60006020820190506110446000830184611020565b92915050565b6000819050919050565b600061106f61106a61106584610eb0565b61104a565b610eb0565b9050919050565b600061108182611054565b9050919050565b600061109382611076565b9050919050565b6110a381611088565b82525050565b60006020820190506110be600083018461109a565b92915050565b6110cd81610ed0565b82525050565b60006020820190506110e860008301846110c4565b92915050565b60008115159050919050565b611103816110ee565b82525050565b600060208201905061111e60008301846110fa565b92915050565b600061112f82611076565b9050919050565b61113f81611124565b82525050565b600060208201905061115a6000830184611136565b92915050565b60008151905061116f81610ee2565b92915050565b60006020828403121561118b5761118a610e48565b5b600061119984828501611160565b91505092915050565b600082825260208201905092915050565b7f596f7520646f206e6f74206f776e2074686973204e4654000000000000000000600082015250565b60006111e96017836111a2565b91506111f4826111b3565b602082019050919050565b60006020820190508181036000830152611218816111dc565b9050919050565b7f5265776172647320666f722074686973204e4654206861766520616c7265616460008201527f79206265656e20636c61696d6564000000000000000000000000000000000000602082015250565b600061127b602e836111a2565b91506112868261121f565b604082019050919050565b600060208201905081810360008301526112aa8161126e565b9050919050565b600381106112be57600080fd5b50565b6000815190506112d0816112b1565b92915050565b6000602082840312156112ec576112eb610e48565b5b60006112fa848285016112c1565b91505092915050565b7f4e487b7100000000000000000000000000000000000000000000000000000000600052601160045260246000fd5b600061133d82610e4d565b915061134883610e4d565b92508282019050808211156113605761135f611303565b5b92915050565b600060408201905061137b60008301856110c4565b6113886020830184611020565b9392505050565b611398816110ee565b81146113a357600080fd5b50565b6000815190506113b58161138f565b92915050565b6000602082840312156113d1576113d0610e48565b5b60006113df848285016113a6565b91505092915050565b7f596f7520617265206e6f7420746865206f776e65720000000000000000000000600082015250565b600061141e6015836111a2565b9150611429826113e8565b602082019050919050565b6000602082019050818103600083015261144d81611411565b9050919050565b7f52657761726473206d7573742062652067726561746572207468616e20300000600082015250565b600061148a601e836111a2565b915061149582611454565b602082019050919050565b600060208201905081810360008301526114b98161147d565b9050919050565b6000815190506114cf81610e57565b92915050565b6000602082840312156114eb576114ea610e48565b5b60006114f9848285016114c0565b9150509291505056fea26469706673582212200057eea394959777bae18e4fcebd4d8069dc076f9fbd015271c7e7d314e7338064736f6c634300081b0033",
  "linkReferences": {},
  "deployedLinkReferences": {}
}