{
  "_format": "hh-sol-artifact-1",
  "contractName": "PlasticContributionNFT",
  "sourceName": "contracts/nft.sol",
  "abi": [
    {
      "inputs": [],
      "stateMutability": "nonpayable",
      "type": "constructor"
    },
    {
      "inputs": [
        {
          "internalType": "address",
          "name": "sender",
          "type": "address"
        },
        {
          "internalType": "uint256",
          "name": "tokenId",
          "type": "uint256"
        },
        {
          "internalType": "address",
          "name": "owner",
          "type": "address"
        }
      ],
      "name": "ERC721IncorrectOwner",
      "type": "error"
    },
    {
      "inputs": [
        {
          "internalType": "address",
          "name": "operator",
          "type": "address"
        },
        {
          "internalType": "uint256",
          "name": "tokenId",
          "type": "uint256"
        }
      ],
      "name": "ERC721InsufficientApproval",
      "type": "error"
    },
    {
      "inputs": [
        {
          "internalType": "address",
          "name": "approver",
          "type": "address"
        }
      ],
      "name": "ERC721InvalidApprover",
      "type": "error"
    },
    {
      "inputs": [
        {
          "internalType": "address",
          "name": "operator",
          "type": "address"
        }
      ],
      "name": "ERC721InvalidOperator",
      "type": "error"
    },
    {
      "inputs": [
        {
          "internalType": "address",
          "name": "owner",
          "type": "address"
        }
      ],
      "name": "ERC721InvalidOwner",
      "type": "error"
    },
    {
      "inputs": [
        {
          "internalType": "address",
          "name": "receiver",
          "type": "address"
        }
      ],
      "name": "ERC721InvalidReceiver",
      "type": "error"
    },
    {
      "inputs": [
        {
          "internalType": "address",
          "name": "sender",
          "type": "address"
        }
      ],
      "name": "ERC721InvalidSender",
      "type": "error"
    },
    {
      "inputs": [
        {
          "internalType": "uint256",
          "name": "tokenId",
          "type": "uint256"
        }
      ],
      "name": "ERC721NonexistentToken",
      "type": "error"
    },
    {
      "inputs": [
        {
          "internalType": "address",
          "name": "owner",
          "type": "address"
        }
      ],
      "name": "OwnableInvalidOwner",
      "type": "error"
    },
    {
      "inputs": [
        {
          "internalType": "address",
          "name": "account",
          "type": "address"
        }
      ],
      "name": "OwnableUnauthorizedAccount",
      "type": "error"
    },
    {
      "anonymous": false,
      "inputs": [
        {
          "indexed": true,
          "internalType": "address",
          "name": "owner",
          "type": "address"
        },
        {
          "indexed": true,
          "internalType": "address",
          "name": "approved",
          "type": "address"
        },
        {
          "indexed": true,
          "internalType": "uint256",
          "name": "tokenId",
          "type": "uint256"
        }
      ],
      "name": "Approval",
      "type": "event"
    },
    {
      "anonymous": false,
      "inputs": [
        {
          "indexed": true,
          "internalType": "address",
          "name": "owner",
          "type": "address"
        },
        {
          "indexed": true,
          "internalType": "address",
          "name": "operator",
          "type": "address"
        },
        {
          "indexed": false,
          "internalType": "bool",
          "name": "approved",
          "type": "bool"
        }
      ],
      "name": "ApprovalForAll",
      "type": "event"
    },
    {
      "anonymous": false,
      "inputs": [
        {
          "indexed": false,
          "internalType": "uint256",
          "name": "_fromTokenId",
          "type": "uint256"
        },
        {
          "indexed": false,
          "internalType": "uint256",
          "name": "_toTokenId",
          "type": "uint256"
        }
      ],
      "name": "BatchMetadataUpdate",
      "type": "event"
    },
    {
      "anonymous": false,
      "inputs": [
        {
          "indexed": false,
          "internalType": "uint256",
          "name": "_tokenId",
          "type": "uint256"
        }
      ],
      "name": "MetadataUpdate",
      "type": "event"
    },
    {
      "anonymous": false,
      "inputs": [
        {
          "indexed": true,
          "internalType": "address",
          "name": "previousOwner",
          "type": "address"
        },
        {
          "indexed": true,
          "internalType": "address",
          "name": "newOwner",
          "type": "address"
        }
      ],
      "name": "OwnershipTransferred",
      "type": "event"
    },
    {
      "anonymous": false,
      "inputs": [
        {
          "indexed": true,
          "internalType": "address",
          "name": "from",
          "type": "address"
        },
        {
          "indexed": true,
          "internalType": "address",
          "name": "to",
          "type": "address"
        },
        {
          "indexed": true,
          "internalType": "uint256",
          "name": "tokenId",
          "type": "uint256"
        }
      ],
      "name": "Transfer",
      "type": "event"
    },
    {
      "inputs": [],
      "name": "CONTRIBUTION_THRESHOLD",
      "outputs": [
        {
          "internalType": "uint256",
          "name": "",
          "type": "uint256"
        }
      ],
      "stateMutability": "view",
      "type": "function"
    },
    {
      "inputs": [
        {
          "internalType": "address",
          "name": "to",
          "type": "address"
        },
        {
          "internalType": "uint256",
          "name": "tokenId",
          "type": "uint256"
        }
      ],
      "name": "approve",
      "outputs": [],
      "stateMutability": "nonpayable",
      "type": "function"
    },
    {
      "inputs": [
        {
          "internalType": "address",
          "name": "owner",
          "type": "address"
        }
      ],
      "name": "balanceOf",
      "outputs": [
        {
          "internalType": "uint256",
          "name": "",
          "type": "uint256"
        }
      ],
      "stateMutability": "view",
      "type": "function"
    },
    {
      "inputs": [
        {
          "internalType": "uint256",
          "name": "tokenId",
          "type": "uint256"
        }
      ],
      "name": "getApproved",
      "outputs": [
        {
          "internalType": "address",
          "name": "",
          "type": "address"
        }
      ],
      "stateMutability": "view",
      "type": "function"
    },
    {
      "inputs": [
        {
          "internalType": "uint256",
          "name": "tokenId",
          "type": "uint256"
        }
      ],
      "name": "getNFTLevel",
      "outputs": [
        {
          "internalType": "enum PlasticContributionNFT.NFTLevel",
          "name": "",
          "type": "uint8"
        }
      ],
      "stateMutability": "view",
      "type": "function"
    },
    {
      "inputs": [
        {
          "internalType": "address",
          "name": "owner",
          "type": "address"
        },
        {
          "internalType": "address",
          "name": "operator",
          "type": "address"
        }
      ],
      "name": "isApprovedForAll",
      "outputs": [
        {
          "internalType": "bool",
          "name": "",
          "type": "bool"
        }
      ],
      "stateMutability": "view",
      "type": "function"
    },
    {
      "inputs": [],
      "name": "level1URI",
      "outputs": [
        {
          "internalType": "string",
          "name": "",
          "type": "string"
        }
      ],
      "stateMutability": "view",
      "type": "function"
    },
    {
      "inputs": [],
      "name": "level2URI",
      "outputs": [
        {
          "internalType": "string",
          "name": "",
          "type": "string"
        }
      ],
      "stateMutability": "view",
      "type": "function"
    },
    {
      "inputs": [],
      "name": "level3URI",
      "outputs": [
        {
          "internalType": "string",
          "name": "",
          "type": "string"
        }
      ],
      "stateMutability": "view",
      "type": "function"
    },
    {
      "inputs": [
        {
          "internalType": "address",
          "name": "recipient",
          "type": "address"
        }
      ],
      "name": "mintNFT",
      "outputs": [
        {
          "internalType": "uint256",
          "name": "",
          "type": "uint256"
        }
      ],
      "stateMutability": "nonpayable",
      "type": "function"
    },
    {
      "inputs": [],
      "name": "name",
      "outputs": [
        {
          "internalType": "string",
          "name": "",
          "type": "string"
        }
      ],
      "stateMutability": "view",
      "type": "function"
    },
    {
      "inputs": [],
      "name": "owner",
      "outputs": [
        {
          "internalType": "address",
          "name": "",
          "type": "address"
        }
      ],
      "stateMutability": "view",
      "type": "function"
    },
    {
      "inputs": [
        {
          "internalType": "uint256",
          "name": "tokenId",
          "type": "uint256"
        }
      ],
      "name": "ownerOf",
      "outputs": [
        {
          "internalType": "address",
          "name": "",
          "type": "address"
        }
      ],
      "stateMutability": "view",
      "type": "function"
    },
    {
      "inputs": [],
      "name": "renounceOwnership",
      "outputs": [],
      "stateMutability": "nonpayable",
      "type": "function"
    },
    {
      "inputs": [
        {
          "internalType": "address",
          "name": "from",
          "type": "address"
        },
        {
          "internalType": "address",
          "name": "to",
          "type": "address"
        },
        {
          "internalType": "uint256",
          "name": "tokenId",
          "type": "uint256"
        }
      ],
      "name": "safeTransferFrom",
      "outputs": [],
      "stateMutability": "nonpayable",
      "type": "function"
    },
    {
      "inputs": [
        {
          "internalType": "address",
          "name": "from",
          "type": "address"
        },
        {
          "internalType": "address",
          "name": "to",
          "type": "address"
        },
        {
          "internalType": "uint256",
          "name": "tokenId",
          "type": "uint256"
        },
        {
          "internalType": "bytes",
          "name": "data",
          "type": "bytes"
        }
      ],
      "name": "safeTransferFrom",
      "outputs": [],
      "stateMutability": "nonpayable",
      "type": "function"
    },
    {
      "inputs": [
        {
          "internalType": "address",
          "name": "operator",
          "type": "address"
        },
        {
          "internalType": "bool",
          "name": "approved",
          "type": "bool"
        }
      ],
      "name": "setApprovalForAll",
      "outputs": [],
      "stateMutability": "nonpayable",
      "type": "function"
    },
    {
      "inputs": [
        {
          "internalType": "string",
          "name": "_level1URI",
          "type": "string"
        },
        {
          "internalType": "string",
          "name": "_level2URI",
          "type": "string"
        },
        {
          "internalType": "string",
          "name": "_level3URI",
          "type": "string"
        }
      ],
      "name": "setLevelURIs",
      "outputs": [],
      "stateMutability": "nonpayable",
      "type": "function"
    },
    {
      "inputs": [
        {
          "internalType": "bytes4",
          "name": "interfaceId",
          "type": "bytes4"
        }
      ],
      "name": "supportsInterface",
      "outputs": [
        {
          "internalType": "bool",
          "name": "",
          "type": "bool"
        }
      ],
      "stateMutability": "view",
      "type": "function"
    },
    {
      "inputs": [],
      "name": "symbol",
      "outputs": [
        {
          "internalType": "string",
          "name": "",
          "type": "string"
        }
      ],
      "stateMutability": "view",
      "type": "function"
    },
    {
      "inputs": [
        {
          "internalType": "uint256",
          "name": "",
          "type": "uint256"
        }
      ],
      "name": "tokenLevel",
      "outputs": [
        {
          "internalType": "enum PlasticContributionNFT.NFTLevel",
          "name": "",
          "type": "uint8"
        }
      ],
      "stateMutability": "view",
      "type": "function"
    },
    {
      "inputs": [
        {
          "internalType": "uint256",
          "name": "tokenId",
          "type": "uint256"
        }
      ],
      "name": "tokenURI",
      "outputs": [
        {
          "internalType": "string",
          "name": "",
          "type": "string"
        }
      ],
      "stateMutability": "view",
      "type": "function"
    },
    {
      "inputs": [
        {
          "internalType": "address",
          "name": "from",
          "type": "address"
        },
        {
          "internalType": "address",
          "name": "to",
          "type": "address"
        },
        {
          "internalType": "uint256",
          "name": "tokenId",
          "type": "uint256"
        }
      ],
      "name": "transferFrom",
      "outputs": [],
      "stateMutability": "nonpayable",
      "type": "function"
    },
    {
      "inputs": [
        {
          "internalType": "address",
          "name": "newOwner",
          "type": "address"
        }
      ],
      "name": "transferOwnership",
      "outputs": [],
      "stateMutability": "nonpayable",
      "type": "function"
    },
    {
      "inputs": [
        {
          "internalType": "address",
          "name": "",
          "type": "address"
        }
      ],
      "name": "userContributions",
      "outputs": [
        {
          "internalType": "uint256",
          "name": "",
          "type": "uint256"
        }
      ],
      "stateMutability": "view",
      "type": "function"
    }
  ],
  "bytecode": "0x60806040526040518060a001604052806062815260200161351a60629139600b908161002b91906104b5565b506040518060a001604052806062815260200161351a60629139600c908161005391906104b5565b506040518060a001604052806062815260200161351a60629139600d908161007b91906104b5565b5034801561008857600080fd5b50336040518060400160405280601681526020017f506c6173746963436f6e747269627574696f6e4e4654000000000000000000008152506040518060400160405280600381526020017f50434e0000000000000000000000000000000000000000000000000000000000815250816000908161010591906104b5565b50806001908161011591906104b5565b505050600073ffffffffffffffffffffffffffffffffffffffff168173ffffffffffffffffffffffffffffffffffffffff160361018a5760006040517f1e4fbdf700000000000000000000000000000000000000000000000000000000815260040161018191906105c8565b60405180910390fd5b6101998161019f60201b60201c565b506105e3565b6000600760009054906101000a900473ffffffffffffffffffffffffffffffffffffffff16905081600760006101000a81548173ffffffffffffffffffffffffffffffffffffffff021916908373ffffffffffffffffffffffffffffffffffffffff1602179055508173ffffffffffffffffffffffffffffffffffffffff168173ffffffffffffffffffffffffffffffffffffffff167f8be0079c531659141344cd1fd0a4f28419497f9722a3daafe3b4186f6b6457e060405160405180910390a35050565b600081519050919050565b7f4e487b7100000000000000000000000000000000000000000000000000000000600052604160045260246000fd5b7f4e487b7100000000000000000000000000000000000000000000000000000000600052602260045260246000fd5b600060028204905060018216806102e657607f821691505b6020821081036102f9576102f861029f565b5b50919050565b60008190508160005260206000209050919050565b60006020601f8301049050919050565b600082821b905092915050565b6000600883026103617fffffffffffffffffffffffffffffffffffffffffffffffffffffffffffffffff82610324565b61036b8683610324565b95508019841693508086168417925050509392505050565b6000819050919050565b6000819050919050565b60006103b26103ad6103a884610383565b61038d565b610383565b9050919050565b6000819050919050565b6103cc83610397565b6103e06103d8826103b9565b848454610331565b825550505050565b600090565b6103f56103e8565b6104008184846103c3565b505050565b5b81811015610424576104196000826103ed565b600181019050610406565b5050565b601f8211156104695761043a816102ff565b61044384610314565b81016020851015610452578190505b61046661045e85610314565b830182610405565b50505b505050565b600082821c905092915050565b600061048c6000198460080261046e565b1980831691505092915050565b60006104a5838361047b565b9150826002028217905092915050565b6104be82610265565b67ffffffffffffffff8111156104d7576104d6610270565b5b6104e182546102ce565b6104ec828285610428565b600060209050601f83116001811461051f576000841561050d578287015190505b6105178582610499565b86555061057f565b601f19841661052d866102ff565b60005b8281101561055557848901518255600182019150602085019450602081019050610530565b86831015610572578489015161056e601f89168261047b565b8355505b6001600288020188555050505b505050505050565b600073ffffffffffffffffffffffffffffffffffffffff82169050919050565b60006105b282610587565b9050919050565b6105c2816105a7565b82525050565b60006020820190506105dd60008301846105b9565b92915050565b612f28806105f26000396000f3fe608060405234801561001057600080fd5b50600436106101735760003560e01c80636f90b5e6116100de578063a22cb46511610097578063c87b56dd11610071578063c87b56dd1461045e578063e1ecbd3c1461048e578063e985e9c5146104ac578063f2fde38b146104dc57610173565b8063a22cb465146103f6578063ab8ece8b14610412578063b88d4fde1461044257610173565b80636f90b5e61461034657806370a0823114610364578063715018a61461039457806386e4ee511461039e5780638da5cb5b146103ba57806395d89b41146103d857610173565b80630f6ca1a8116101305780630f6ca1a81461026057806323b872dd1461029057806342842e0e146102ac57806354ba0f27146102c857806358fd85b5146102f85780636352211e1461031657610173565b806301ffc9a71461017857806306fdde03146101a8578063080e035d146101c6578063081812fc146101f6578063095ea7b3146102265780630c223a5c14610242575b600080fd5b610192600480360381019061018d9190612261565b6104f8565b60405161019f91906122a9565b60405180910390f35b6101b0610559565b6040516101bd9190612354565b60405180910390f35b6101e060048036038101906101db91906123ac565b6105eb565b6040516101ed9190612450565b60405180910390f35b610210600480360381019061020b91906123ac565b610615565b60405161021d91906124ac565b60405180910390f35b610240600480360381019061023b91906124f3565b610631565b005b61024a610647565b6040516102579190612354565b60405180910390f35b61027a60048036038101906102759190612533565b6106d5565b604051610287919061256f565b60405180910390f35b6102aa60048036038101906102a5919061258a565b6106ed565b005b6102c660048036038101906102c1919061258a565b6107ef565b005b6102e260048036038101906102dd9190612533565b61080f565b6040516102ef919061256f565b60405180910390f35b6103006108b1565b60405161030d9190612354565b60405180910390f35b610330600480360381019061032b91906123ac565b61093f565b60405161033d91906124ac565b60405180910390f35b61034e610951565b60405161035b919061256f565b60405180910390f35b61037e60048036038101906103799190612533565b610956565b60405161038b919061256f565b60405180910390f35b61039c610a10565b005b6103b860048036038101906103b39190612712565b610a24565b005b6103c2610a61565b6040516103cf91906124ac565b60405180910390f35b6103e0610a8b565b6040516103ed9190612354565b60405180910390f35b610410600480360381019061040b91906127e5565b610b1d565b005b61042c600480360381019061042791906123ac565b610b33565b6040516104399190612450565b60405180910390f35b61045c600480360381019061045791906128c6565b610b53565b005b610478600480360381019061047391906123ac565b610b70565b6040516104859190612354565b60405180910390f35b610496610b82565b6040516104a39190612354565b60405180910390f35b6104c660048036038101906104c19190612949565b610c10565b6040516104d391906122a9565b60405180910390f35b6104f660048036038101906104f19190612533565b610ca4565b005b6000634906490660e01b7bffffffffffffffffffffffffffffffffffffffffffffffffffffffff1916827bffffffffffffffffffffffffffffffffffffffffffffffffffffffff19161480610552575061055182610d2a565b5b9050919050565b606060008054610568906129b8565b80601f0160208091040260200160405190810160405280929190818152602001828054610594906129b8565b80156105e15780601f106105b6576101008083540402835291602001916105e1565b820191906000526020600020905b8154815290600101906020018083116105c457829003601f168201915b5050505050905090565b6000600a600083815260200190815260200160002060009054906101000a900460ff169050919050565b600061062082610e0c565b5061062a82610e94565b9050919050565b610643828261063e610ed1565b610ed9565b5050565b600b8054610654906129b8565b80601f0160208091040260200160405190810160405280929190818152602001828054610680906129b8565b80156106cd5780601f106106a2576101008083540402835291602001916106cd565b820191906000526020600020905b8154815290600101906020018083116106b057829003601f168201915b505050505081565b60096020528060005260406000206000915090505481565b600073ffffffffffffffffffffffffffffffffffffffff168273ffffffffffffffffffffffffffffffffffffffff160361075f5760006040517f64a0ae9200000000000000000000000000000000000000000000000000000000815260040161075691906124ac565b60405180910390fd5b6000610773838361076e610ed1565b610eeb565b90508373ffffffffffffffffffffffffffffffffffffffff168173ffffffffffffffffffffffffffffffffffffffff16146107e9578382826040517f64283d7b0000000000000000000000000000000000000000000000000000000081526004016107e0939291906129e9565b60405180910390fd5b50505050565b61080a83838360405180602001604052806000815250610b53565b505050565b6000610819611105565b60006008600081548092919061082e90612a4f565b919050559050600061083f8461118c565b9050600061084c8261120c565b9050610858858461141d565b6108628382611516565b81600a600085815260200190815260200160002060006101000a81548160ff02191690836002811115610898576108976123d9565b5b02179055506108a685611572565b829350505050919050565b600c80546108be906129b8565b80601f01602080910402602001604051908101604052809291908181526020018280546108ea906129b8565b80156109375780601f1061090c57610100808354040283529160200191610937565b820191906000526020600020905b81548152906001019060200180831161091a57829003601f168201915b505050505081565b600061094a82610e0c565b9050919050565b600481565b60008073ffffffffffffffffffffffffffffffffffffffff168273ffffffffffffffffffffffffffffffffffffffff16036109c95760006040517f89c62b640000000000000000000000000000000000000000000000000000000081526004016109c091906124ac565b60405180910390fd5b600360008373ffffffffffffffffffffffffffffffffffffffff1673ffffffffffffffffffffffffffffffffffffffff168152602001908152602001600020549050919050565b610a18611105565b610a226000611664565b565b610a2c611105565b82600b9081610a3b9190612c43565b5081600c9081610a4b9190612c43565b5080600d9081610a5b9190612c43565b50505050565b6000600760009054906101000a900473ffffffffffffffffffffffffffffffffffffffff16905090565b606060018054610a9a906129b8565b80601f0160208091040260200160405190810160405280929190818152602001828054610ac6906129b8565b8015610b135780601f10610ae857610100808354040283529160200191610b13565b820191906000526020600020905b815481529060010190602001808311610af657829003601f168201915b5050505050905090565b610b2f610b28610ed1565b838361172a565b5050565b600a6020528060005260406000206000915054906101000a900460ff1681565b610b5e8484846106ed565b610b6a84848484611899565b50505050565b6060610b7b82611a50565b9050919050565b600d8054610b8f906129b8565b80601f0160208091040260200160405190810160405280929190818152602001828054610bbb906129b8565b8015610c085780601f10610bdd57610100808354040283529160200191610c08565b820191906000526020600020905b815481529060010190602001808311610beb57829003601f168201915b505050505081565b6000600560008473ffffffffffffffffffffffffffffffffffffffff1673ffffffffffffffffffffffffffffffffffffffff16815260200190815260200160002060008373ffffffffffffffffffffffffffffffffffffffff1673ffffffffffffffffffffffffffffffffffffffff16815260200190815260200160002060009054906101000a900460ff16905092915050565b610cac611105565b600073ffffffffffffffffffffffffffffffffffffffff168173ffffffffffffffffffffffffffffffffffffffff1603610d1e5760006040517f1e4fbdf7000000000000000000000000000000000000000000000000000000008152600401610d1591906124ac565b60405180910390fd5b610d2781611664565b50565b60007f80ac58cd000000000000000000000000000000000000000000000000000000007bffffffffffffffffffffffffffffffffffffffffffffffffffffffff1916827bffffffffffffffffffffffffffffffffffffffffffffffffffffffff19161480610df557507f5b5e139f000000000000000000000000000000000000000000000000000000007bffffffffffffffffffffffffffffffffffffffffffffffffffffffff1916827bffffffffffffffffffffffffffffffffffffffffffffffffffffffff1916145b80610e055750610e0482611b63565b5b9050919050565b600080610e1883611bcd565b9050600073ffffffffffffffffffffffffffffffffffffffff168173ffffffffffffffffffffffffffffffffffffffff1603610e8b57826040517f7e273289000000000000000000000000000000000000000000000000000000008152600401610e82919061256f565b60405180910390fd5b80915050919050565b60006004600083815260200190815260200160002060009054906101000a900473ffffffffffffffffffffffffffffffffffffffff169050919050565b600033905090565b610ee68383836001611c0a565b505050565b600080610ef784611bcd565b9050600073ffffffffffffffffffffffffffffffffffffffff168373ffffffffffffffffffffffffffffffffffffffff1614610f3957610f38818486611dcf565b5b600073ffffffffffffffffffffffffffffffffffffffff168173ffffffffffffffffffffffffffffffffffffffff1614610fca57610f7b600085600080611c0a565b6001600360008373ffffffffffffffffffffffffffffffffffffffff1673ffffffffffffffffffffffffffffffffffffffff168152602001908152602001600020600082825403925050819055505b600073ffffffffffffffffffffffffffffffffffffffff168573ffffffffffffffffffffffffffffffffffffffff161461104d576001600360008773ffffffffffffffffffffffffffffffffffffffff1673ffffffffffffffffffffffffffffffffffffffff168152602001908152602001600020600082825401925050819055505b846002600086815260200190815260200160002060006101000a81548173ffffffffffffffffffffffffffffffffffffffff021916908373ffffffffffffffffffffffffffffffffffffffff160217905550838573ffffffffffffffffffffffffffffffffffffffff168273ffffffffffffffffffffffffffffffffffffffff167fddf252ad1be2c89b69c2b068fc378daa952ba7f163c4a11628f55a4df523b3ef60405160405180910390a4809150509392505050565b61110d610ed1565b73ffffffffffffffffffffffffffffffffffffffff1661112b610a61565b73ffffffffffffffffffffffffffffffffffffffff161461118a5761114e610ed1565b6040517f118cdaa700000000000000000000000000000000000000000000000000000000815260040161118191906124ac565b60405180910390fd5b565b600080600960008473ffffffffffffffffffffffffffffffffffffffff1673ffffffffffffffffffffffffffffffffffffffff168152602001908152602001600020549050600260046111df9190612d15565b81106111ef576002915050611207565b60048110611201576001915050611207565b60009150505b919050565b606060006002811115611222576112216123d9565b5b826002811115611235576112346123d9565b5b036112cc57600b8054611247906129b8565b80601f0160208091040260200160405190810160405280929190818152602001828054611273906129b8565b80156112c05780601f10611295576101008083540402835291602001916112c0565b820191906000526020600020905b8154815290600101906020018083116112a357829003601f168201915b50505050509050611418565b600160028111156112e0576112df6123d9565b5b8260028111156112f3576112f26123d9565b5b0361138a57600c8054611305906129b8565b80601f0160208091040260200160405190810160405280929190818152602001828054611331906129b8565b801561137e5780601f106113535761010080835404028352916020019161137e565b820191906000526020600020905b81548152906001019060200180831161136157829003601f168201915b50505050509050611418565b600d8054611397906129b8565b80601f01602080910402602001604051908101604052809291908181526020018280546113c3906129b8565b80156114105780601f106113e557610100808354040283529160200191611410565b820191906000526020600020905b8154815290600101906020018083116113f357829003601f168201915b505050505090505b919050565b600073ffffffffffffffffffffffffffffffffffffffff168273ffffffffffffffffffffffffffffffffffffffff160361148f5760006040517f64a0ae9200000000000000000000000000000000000000000000000000000000815260040161148691906124ac565b60405180910390fd5b600061149d83836000610eeb565b9050600073ffffffffffffffffffffffffffffffffffffffff168173ffffffffffffffffffffffffffffffffffffffff16146115115760006040517f73c6ac6e00000000000000000000000000000000000000000000000000000000815260040161150891906124ac565b60405180910390fd5b505050565b806006600084815260200190815260200160002090816115369190612c43565b507ff8e1a15aba9398e019f0b49df1a4fde98ee17ae345cb5f6b5e2c27f5033e8ce782604051611566919061256f565b60405180910390a15050565b600960008273ffffffffffffffffffffffffffffffffffffffff1673ffffffffffffffffffffffffffffffffffffffff16815260200190815260200160002060008154809291906115c290612a4f565b9190505550600260046115d59190612d15565b600960008373ffffffffffffffffffffffffffffffffffffffff1673ffffffffffffffffffffffffffffffffffffffff168152602001908152602001600020541115611661576000600960008373ffffffffffffffffffffffffffffffffffffffff1673ffffffffffffffffffffffffffffffffffffffff168152602001908152602001600020819055505b50565b6000600760009054906101000a900473ffffffffffffffffffffffffffffffffffffffff16905081600760006101000a81548173ffffffffffffffffffffffffffffffffffffffff021916908373ffffffffffffffffffffffffffffffffffffffff1602179055508173ffffffffffffffffffffffffffffffffffffffff168173ffffffffffffffffffffffffffffffffffffffff167f8be0079c531659141344cd1fd0a4f28419497f9722a3daafe3b4186f6b6457e060405160405180910390a35050565b600073ffffffffffffffffffffffffffffffffffffffff168273ffffffffffffffffffffffffffffffffffffffff160361179b57816040517f5b08ba1800000000000000000000000000000000000000000000000000000000815260040161179291906124ac565b60405180910390fd5b80600560008573ffffffffffffffffffffffffffffffffffffffff1673ffffffffffffffffffffffffffffffffffffffff16815260200190815260200160002060008473ffffffffffffffffffffffffffffffffffffffff1673ffffffffffffffffffffffffffffffffffffffff16815260200190815260200160002060006101000a81548160ff0219169083151502179055508173ffffffffffffffffffffffffffffffffffffffff168373ffffffffffffffffffffffffffffffffffffffff167f17307eab39ab6107e8899845ad3d59bd9653f200f220920489ca2b5937696c318360405161188c91906122a9565b60405180910390a3505050565b60008373ffffffffffffffffffffffffffffffffffffffff163b1115611a4a578273ffffffffffffffffffffffffffffffffffffffff1663150b7a026118dd610ed1565b8685856040518563ffffffff1660e01b81526004016118ff9493929190612dac565b6020604051808303816000875af192505050801561193b57506040513d601f19601f820116820180604052508101906119389190612e0d565b60015b6119bf573d806000811461196b576040519150601f19603f3d011682016040523d82523d6000602084013e611970565b606091505b5060008151036119b757836040517f64a0ae920000000000000000000000000000000000000000000000000000000081526004016119ae91906124ac565b60405180910390fd5b805181602001fd5b63150b7a0260e01b7bffffffffffffffffffffffffffffffffffffffffffffffffffffffff1916817bffffffffffffffffffffffffffffffffffffffffffffffffffffffff191614611a4857836040517f64a0ae92000000000000000000000000000000000000000000000000000000008152600401611a3f91906124ac565b60405180910390fd5b505b50505050565b6060611a5b82610e0c565b506000600660008481526020019081526020016000208054611a7c906129b8565b80601f0160208091040260200160405190810160405280929190818152602001828054611aa8906129b8565b8015611af55780601f10611aca57610100808354040283529160200191611af5565b820191906000526020600020905b815481529060010190602001808311611ad857829003601f168201915b505050505090506000611b06611e93565b90506000815103611b1b578192505050611b5e565b600082511115611b50578082604051602001611b38929190612e76565b60405160208183030381529060405292505050611b5e565b611b5984611eaa565b925050505b919050565b60007f01ffc9a7000000000000000000000000000000000000000000000000000000007bffffffffffffffffffffffffffffffffffffffffffffffffffffffff1916827bffffffffffffffffffffffffffffffffffffffffffffffffffffffff1916149050919050565b60006002600083815260200190815260200160002060009054906101000a900473ffffffffffffffffffffffffffffffffffffffff169050919050565b8080611c435750600073ffffffffffffffffffffffffffffffffffffffff168273ffffffffffffffffffffffffffffffffffffffff1614155b15611d77576000611c5384610e0c565b9050600073ffffffffffffffffffffffffffffffffffffffff168373ffffffffffffffffffffffffffffffffffffffff1614158015611cbe57508273ffffffffffffffffffffffffffffffffffffffff168173ffffffffffffffffffffffffffffffffffffffff1614155b8015611cd15750611ccf8184610c10565b155b15611d1357826040517fa9fbf51f000000000000000000000000000000000000000000000000000000008152600401611d0a91906124ac565b60405180910390fd5b8115611d7557838573ffffffffffffffffffffffffffffffffffffffff168273ffffffffffffffffffffffffffffffffffffffff167f8c5be1e5ebec7d5bd14f71427d1e84f3dd0314c0f7b2291e5b200ac8c7c3b92560405160405180910390a45b505b836004600085815260200190815260200160002060006101000a81548173ffffffffffffffffffffffffffffffffffffffff021916908373ffffffffffffffffffffffffffffffffffffffff16021790555050505050565b611dda838383611f13565b611e8e57600073ffffffffffffffffffffffffffffffffffffffff168373ffffffffffffffffffffffffffffffffffffffff1603611e4f57806040517f7e273289000000000000000000000000000000000000000000000000000000008152600401611e46919061256f565b60405180910390fd5b81816040517f177e802f000000000000000000000000000000000000000000000000000000008152600401611e85929190612e9a565b60405180910390fd5b505050565b606060405180602001604052806000815250905090565b6060611eb582610e0c565b506000611ec0611e93565b90506000815111611ee05760405180602001604052806000815250611f0b565b80611eea84611fd4565b604051602001611efb929190612e76565b6040516020818303038152906040525b915050919050565b60008073ffffffffffffffffffffffffffffffffffffffff168373ffffffffffffffffffffffffffffffffffffffff1614158015611fcb57508273ffffffffffffffffffffffffffffffffffffffff168473ffffffffffffffffffffffffffffffffffffffff161480611f8c5750611f8b8484610c10565b5b80611fca57508273ffffffffffffffffffffffffffffffffffffffff16611fb283610e94565b73ffffffffffffffffffffffffffffffffffffffff16145b5b90509392505050565b606060006001611fe3846120a2565b01905060008167ffffffffffffffff811115612002576120016125e7565b5b6040519080825280601f01601f1916602001820160405280156120345781602001600182028036833780820191505090505b509050600082602001820190505b600115612097578080600190039150507f3031323334353637383961626364656600000000000000000000000000000000600a86061a8153600a858161208b5761208a612ec3565b5b04945060008503612042575b819350505050919050565b600080600090507a184f03e93ff9f4daa797ed6e38ed64bf6a1f0100000000000000008310612100577a184f03e93ff9f4daa797ed6e38ed64bf6a1f01000000000000000083816120f6576120f5612ec3565b5b0492506040810190505b6d04ee2d6d415b85acef8100000000831061213d576d04ee2d6d415b85acef8100000000838161213357612132612ec3565b5b0492506020810190505b662386f26fc10000831061216c57662386f26fc10000838161216257612161612ec3565b5b0492506010810190505b6305f5e1008310612195576305f5e100838161218b5761218a612ec3565b5b0492506008810190505b61271083106121ba5761271083816121b0576121af612ec3565b5b0492506004810190505b606483106121dd57606483816121d3576121d2612ec3565b5b0492506002810190505b600a83106121ec576001810190505b80915050919050565b6000604051905090565b600080fd5b600080fd5b60007fffffffff0000000000000000000000000000000000000000000000000000000082169050919050565b61223e81612209565b811461224957600080fd5b50565b60008135905061225b81612235565b92915050565b600060208284031215612277576122766121ff565b5b60006122858482850161224c565b91505092915050565b60008115159050919050565b6122a38161228e565b82525050565b60006020820190506122be600083018461229a565b92915050565b600081519050919050565b600082825260208201905092915050565b60005b838110156122fe5780820151818401526020810190506122e3565b60008484015250505050565b6000601f19601f8301169050919050565b6000612326826122c4565b61233081856122cf565b93506123408185602086016122e0565b6123498161230a565b840191505092915050565b6000602082019050818103600083015261236e818461231b565b905092915050565b6000819050919050565b61238981612376565b811461239457600080fd5b50565b6000813590506123a681612380565b92915050565b6000602082840312156123c2576123c16121ff565b5b60006123d084828501612397565b91505092915050565b7f4e487b7100000000000000000000000000000000000000000000000000000000600052602160045260246000fd5b60038110612419576124186123d9565b5b50565b600081905061242a82612408565b919050565b600061243a8261241c565b9050919050565b61244a8161242f565b82525050565b60006020820190506124656000830184612441565b92915050565b600073ffffffffffffffffffffffffffffffffffffffff82169050919050565b60006124968261246b565b9050919050565b6124a68161248b565b82525050565b60006020820190506124c1600083018461249d565b92915050565b6124d08161248b565b81146124db57600080fd5b50565b6000813590506124ed816124c7565b92915050565b6000806040838503121561250a576125096121ff565b5b6000612518858286016124de565b925050602061252985828601612397565b9150509250929050565b600060208284031215612549576125486121ff565b5b6000612557848285016124de565b91505092915050565b61256981612376565b82525050565b60006020820190506125846000830184612560565b92915050565b6000806000606084860312156125a3576125a26121ff565b5b60006125b1868287016124de565b93505060206125c2868287016124de565b92505060406125d386828701612397565b9150509250925092565b600080fd5b600080fd5b7f4e487b7100000000000000000000000000000000000000000000000000000000600052604160045260246000fd5b61261f8261230a565b810181811067ffffffffffffffff8211171561263e5761263d6125e7565b5b80604052505050565b60006126516121f5565b905061265d8282612616565b919050565b600067ffffffffffffffff82111561267d5761267c6125e7565b5b6126868261230a565b9050602081019050919050565b82818337600083830152505050565b60006126b56126b084612662565b612647565b9050828152602081018484840111156126d1576126d06125e2565b5b6126dc848285612693565b509392505050565b600082601f8301126126f9576126f86125dd565b5b81356127098482602086016126a2565b91505092915050565b60008060006060848603121561272b5761272a6121ff565b5b600084013567ffffffffffffffff81111561274957612748612204565b5b612755868287016126e4565b935050602084013567ffffffffffffffff81111561277657612775612204565b5b612782868287016126e4565b925050604084013567ffffffffffffffff8111156127a3576127a2612204565b5b6127af868287016126e4565b9150509250925092565b6127c28161228e565b81146127cd57600080fd5b50565b6000813590506127df816127b9565b92915050565b600080604083850312156127fc576127fb6121ff565b5b600061280a858286016124de565b925050602061281b858286016127d0565b9150509250929050565b600067ffffffffffffffff8211156128405761283f6125e7565b5b6128498261230a565b9050602081019050919050565b600061286961286484612825565b612647565b905082815260208101848484011115612885576128846125e2565b5b612890848285612693565b509392505050565b600082601f8301126128ad576128ac6125dd565b5b81356128bd848260208601612856565b91505092915050565b600080600080608085870312156128e0576128df6121ff565b5b60006128ee878288016124de565b94505060206128ff878288016124de565b935050604061291087828801612397565b925050606085013567ffffffffffffffff81111561293157612930612204565b5b61293d87828801612898565b91505092959194509250565b600080604083850312156129605761295f6121ff565b5b600061296e858286016124de565b925050602061297f858286016124de565b9150509250929050565b7f4e487b7100000000000000000000000000000000000000000000000000000000600052602260045260246000fd5b600060028204905060018216806129d057607f821691505b6020821081036129e3576129e2612989565b5b50919050565b60006060820190506129fe600083018661249d565b612a0b6020830185612560565b612a18604083018461249d565b949350505050565b7f4e487b7100000000000000000000000000000000000000000000000000000000600052601160045260246000fd5b6000612a5a82612376565b91507fffffffffffffffffffffffffffffffffffffffffffffffffffffffffffffffff8203612a8c57612a8b612a20565b5b600182019050919050565b60008190508160005260206000209050919050565b60006020601f8301049050919050565b600082821b905092915050565b600060088302612af97fffffffffffffffffffffffffffffffffffffffffffffffffffffffffffffffff82612abc565b612b038683612abc565b95508019841693508086168417925050509392505050565b6000819050919050565b6000612b40612b3b612b3684612376565b612b1b565b612376565b9050919050565b6000819050919050565b612b5a83612b25565b612b6e612b6682612b47565b848454612ac9565b825550505050565b600090565b612b83612b76565b612b8e818484612b51565b505050565b5b81811015612bb257612ba7600082612b7b565b600181019050612b94565b5050565b601f821115612bf757612bc881612a97565b612bd184612aac565b81016020851015612be0578190505b612bf4612bec85612aac565b830182612b93565b50505b505050565b600082821c905092915050565b6000612c1a60001984600802612bfc565b1980831691505092915050565b6000612c338383612c09565b9150826002028217905092915050565b612c4c826122c4565b67ffffffffffffffff811115612c6557612c646125e7565b5b612c6f82546129b8565b612c7a828285612bb6565b600060209050601f831160018114612cad5760008415612c9b578287015190505b612ca58582612c27565b865550612d0d565b601f198416612cbb86612a97565b60005b82811015612ce357848901518255600182019150602085019450602081019050612cbe565b86831015612d005784890151612cfc601f891682612c09565b8355505b6001600288020188555050505b505050505050565b6000612d2082612376565b9150612d2b83612376565b9250828202612d3981612376565b91508282048414831517612d5057612d4f612a20565b5b5092915050565b600081519050919050565b600082825260208201905092915050565b6000612d7e82612d57565b612d888185612d62565b9350612d988185602086016122e0565b612da18161230a565b840191505092915050565b6000608082019050612dc1600083018761249d565b612dce602083018661249d565b612ddb6040830185612560565b8181036060830152612ded8184612d73565b905095945050505050565b600081519050612e0781612235565b92915050565b600060208284031215612e2357612e226121ff565b5b6000612e3184828501612df8565b91505092915050565b600081905092915050565b6000612e50826122c4565b612e5a8185612e3a565b9350612e6a8185602086016122e0565b80840191505092915050565b6000612e828285612e45565b9150612e8e8284612e45565b91508190509392505050565b6000604082019050612eaf600083018561249d565b612ebc6020830184612560565b9392505050565b7f4e487b7100000000000000000000000000000000000000000000000000000000600052601260045260246000fdfea264697066735822122022013b651512a39a88dea51eb93e6364ac50fc4a95f31d835ff6ef2b21edc73164736f6c634300081b003368747470733a2f2f76696f6c65742d6d616a6f722d6f63656c6f742d3638362e6d7970696e6174612e636c6f75642f697066732f516d506a41437943704632734236446159526a57674b546f456873704e76537a4b474c4c4a6a6333767563596251",
  "linkReferences": {},
  "deployedLinkReferences": {}
}